{
	"exercise1b.sol": {
		"FinalExercise": {
			"abi": [
				{
					"inputs": [],
					"stateMutability": "nonpayable",
					"type": "constructor"
				},
				{
					"inputs": [],
					"name": "a",
					"outputs": [
						{
							"internalType": "uint256",
							"name": "",
							"type": "uint256"
						}
					],
					"stateMutability": "view",
					"type": "function"
				},
				{
					"inputs": [],
					"name": "b",
					"outputs": [
						{
							"internalType": "uint256",
							"name": "",
							"type": "uint256"
						}
					],
					"stateMutability": "view",
					"type": "function"
				},
				{
					"inputs": [],
					"name": "f",
					"outputs": [
						{
							"internalType": "uint256",
							"name": "",
							"type": "uint256"
						}
					],
					"stateMutability": "view",
					"type": "function"
				},
				{
					"inputs": [],
					"name": "finalize",
					"outputs": [
						{
							"internalType": "uint256",
							"name": "",
							"type": "uint256"
						}
					],
					"stateMutability": "view",
					"type": "function"
				}
			],
			"devdoc": {
				"kind": "dev",
				"methods": {},
				"version": 1
			},
			"evm": {
				"assembly": "    /* \"exercise1b.sol\":60:521  contract FinalExercise {... */\n  mstore(0x40, 0x80)\n    /* \"exercise1b.sol\":106:109  300 */\n  0x012c\n    /* \"exercise1b.sol\":90:109  uint public a = 300 */\n  0x00\n  sstore\n    /* \"exercise1b.sol\":132:134  12 */\n  0x0c\n    /* \"exercise1b.sol\":116:134  uint public b = 12 */\n  0x01\n  sstore\n    /* \"exercise1b.sol\":157:159  47 */\n  0x2f\n    /* \"exercise1b.sol\":141:159  uint public f = 47 */\n  0x02\n  sstore\n    /* \"exercise1b.sol\":168:184  constructor() {} */\n  callvalue\n  dup1\n  iszero\n  tag_1\n  jumpi\n  0x00\n  dup1\n  revert\ntag_1:\n  pop\n    /* \"exercise1b.sol\":60:521  contract FinalExercise {... */\n  dataSize(sub_0)\n  dup1\n  dataOffset(sub_0)\n  0x00\n  codecopy\n  0x00\n  return\nstop\n\nsub_0: assembly {\n        /* \"exercise1b.sol\":60:521  contract FinalExercise {... */\n      mstore(0x40, 0x80)\n      callvalue\n      dup1\n      iszero\n      tag_1\n      jumpi\n      0x00\n      dup1\n      revert\n    tag_1:\n      pop\n      jumpi(tag_2, lt(calldatasize, 0x04))\n      shr(0xe0, calldataload(0x00))\n      dup1\n      0x0dbe671f\n      eq\n      tag_3\n      jumpi\n      dup1\n      0x26121ff0\n      eq\n      tag_4\n      jumpi\n      dup1\n      0x4bb278f3\n      eq\n      tag_5\n      jumpi\n      dup1\n      0x4df7e3d0\n      eq\n      tag_6\n      jumpi\n    tag_2:\n      0x00\n      dup1\n      revert\n        /* \"exercise1b.sol\":90:109  uint public a = 300 */\n    tag_3:\n      tag_7\n      tag_8\n      jump\t// in\n    tag_7:\n      mload(0x40)\n      tag_9\n      swap2\n      swap1\n      tag_10\n      jump\t// in\n    tag_9:\n      mload(0x40)\n      dup1\n      swap2\n      sub\n      swap1\n      return\n        /* \"exercise1b.sol\":141:159  uint public f = 47 */\n    tag_4:\n      tag_11\n      tag_12\n      jump\t// in\n    tag_11:\n      mload(0x40)\n      tag_13\n      swap2\n      swap1\n      tag_10\n      jump\t// in\n    tag_13:\n      mload(0x40)\n      dup1\n      swap2\n      sub\n      swap1\n      return\n        /* \"exercise1b.sol\":192:518  function finalize() public view returns (uint) {... */\n    tag_5:\n      tag_14\n      tag_15\n      jump\t// in\n    tag_14:\n      mload(0x40)\n      tag_16\n      swap2\n      swap1\n      tag_10\n      jump\t// in\n    tag_16:\n      mload(0x40)\n      dup1\n      swap2\n      sub\n      swap1\n      return\n        /* \"exercise1b.sol\":116:134  uint public b = 12 */\n    tag_6:\n      tag_17\n      tag_18\n      jump\t// in\n    tag_17:\n      mload(0x40)\n      tag_19\n      swap2\n      swap1\n      tag_10\n      jump\t// in\n    tag_19:\n      mload(0x40)\n      dup1\n      swap2\n      sub\n      swap1\n      return\n        /* \"exercise1b.sol\":90:109  uint public a = 300 */\n    tag_8:\n      sload(0x00)\n      dup2\n      jump\t// out\n        /* \"exercise1b.sol\":141:159  uint public f = 47 */\n    tag_12:\n      sload(0x02)\n      dup2\n      jump\t// out\n        /* \"exercise1b.sol\":192:518  function finalize() public view returns (uint) {... */\n    tag_15:\n        /* \"exercise1b.sol\":233:237  uint */\n      0x00\n        /* \"exercise1b.sol\":250:256  uint d */\n      dup1\n        /* \"exercise1b.sol\":259:261  23 */\n      0x17\n        /* \"exercise1b.sol\":250:261  uint d = 23 */\n      swap1\n      pop\n        /* \"exercise1b.sol\":390:391  a */\n      sload(0x00)\n        /* \"exercise1b.sol\":385:386  a */\n      sload(0x00)\n        /* \"exercise1b.sol\":385:391  a >= a */\n      lt\n      iszero\n        /* \"exercise1b.sol\":385:400  a >= a && b < f */\n      dup1\n      iszero\n      tag_21\n      jumpi\n      pop\n        /* \"exercise1b.sol\":399:400  f */\n      sload(0x02)\n        /* \"exercise1b.sol\":395:396  b */\n      sload(0x01)\n        /* \"exercise1b.sol\":395:400  b < f */\n      lt\n        /* \"exercise1b.sol\":385:400  a >= a && b < f */\n    tag_21:\n        /* \"exercise1b.sol\":381:482  if (a >= a && b < f) {... */\n      iszero\n      tag_22\n      jumpi\n        /* \"exercise1b.sol\":422:423  d */\n      dup1\n        /* \"exercise1b.sol\":417:423  d *= d */\n      dup2\n      tag_23\n      swap2\n      swap1\n      tag_24\n      jump\t// in\n    tag_23:\n      swap1\n      pop\n        /* \"exercise1b.sol\":456:457  b */\n      sload(0x01)\n        /* \"exercise1b.sol\":451:457  d -= b */\n      dup2\n      tag_25\n      swap2\n      swap1\n      tag_26\n      jump\t// in\n    tag_25:\n      swap1\n      pop\n        /* \"exercise1b.sol\":381:482  if (a >= a && b < f) {... */\n    tag_22:\n        /* \"exercise1b.sol\":509:510  d */\n      dup1\n        /* \"exercise1b.sol\":502:510  return d */\n      swap2\n      pop\n      pop\n        /* \"exercise1b.sol\":192:518  function finalize() public view returns (uint) {... */\n      swap1\n      jump\t// out\n        /* \"exercise1b.sol\":116:134  uint public b = 12 */\n    tag_18:\n      sload(0x01)\n      dup2\n      jump\t// out\n        /* \"#utility.yul\":7:84   */\n    tag_27:\n        /* \"#utility.yul\":44:51   */\n      0x00\n        /* \"#utility.yul\":73:78   */\n      dup2\n        /* \"#utility.yul\":62:78   */\n      swap1\n      pop\n        /* \"#utility.yul\":7:84   */\n      swap2\n      swap1\n      pop\n      jump\t// out\n        /* \"#utility.yul\":90:208   */\n    tag_28:\n        /* \"#utility.yul\":177:201   */\n      tag_33\n        /* \"#utility.yul\":195:200   */\n      dup2\n        /* \"#utility.yul\":177:201   */\n      tag_27\n      jump\t// in\n    tag_33:\n        /* \"#utility.yul\":172:175   */\n      dup3\n        /* \"#utility.yul\":165:202   */\n      mstore\n        /* \"#utility.yul\":90:208   */\n      pop\n      pop\n      jump\t// out\n        /* \"#utility.yul\":214:436   */\n    tag_10:\n        /* \"#utility.yul\":307:311   */\n      0x00\n        /* \"#utility.yul\":345:347   */\n      0x20\n        /* \"#utility.yul\":334:343   */\n      dup3\n        /* \"#utility.yul\":330:348   */\n      add\n        /* \"#utility.yul\":322:348   */\n      swap1\n      pop\n        /* \"#utility.yul\":358:429   */\n      tag_35\n        /* \"#utility.yul\":426:427   */\n      0x00\n        /* \"#utility.yul\":415:424   */\n      dup4\n        /* \"#utility.yul\":411:428   */\n      add\n        /* \"#utility.yul\":402:408   */\n      dup5\n        /* \"#utility.yul\":358:429   */\n      tag_28\n      jump\t// in\n    tag_35:\n        /* \"#utility.yul\":214:436   */\n      swap3\n      swap2\n      pop\n      pop\n      jump\t// out\n        /* \"#utility.yul\":442:622   */\n    tag_29:\n        /* \"#utility.yul\":490:567   */\n      0x4e487b7100000000000000000000000000000000000000000000000000000000\n        /* \"#utility.yul\":487:488   */\n      0x00\n        /* \"#utility.yul\":480:568   */\n      mstore\n        /* \"#utility.yul\":587:591   */\n      0x11\n        /* \"#utility.yul\":584:585   */\n      0x04\n        /* \"#utility.yul\":577:592   */\n      mstore\n        /* \"#utility.yul\":611:615   */\n      0x24\n        /* \"#utility.yul\":608:609   */\n      0x00\n        /* \"#utility.yul\":601:616   */\n      revert\n        /* \"#utility.yul\":628:1038   */\n    tag_24:\n        /* \"#utility.yul\":668:675   */\n      0x00\n        /* \"#utility.yul\":691:711   */\n      tag_38\n        /* \"#utility.yul\":709:710   */\n      dup3\n        /* \"#utility.yul\":691:711   */\n      tag_27\n      jump\t// in\n    tag_38:\n        /* \"#utility.yul\":686:711   */\n      swap2\n      pop\n        /* \"#utility.yul\":725:745   */\n      tag_39\n        /* \"#utility.yul\":743:744   */\n      dup4\n        /* \"#utility.yul\":725:745   */\n      tag_27\n      jump\t// in\n    tag_39:\n        /* \"#utility.yul\":720:745   */\n      swap3\n      pop\n        /* \"#utility.yul\":780:781   */\n      dup3\n        /* \"#utility.yul\":777:778   */\n      dup3\n        /* \"#utility.yul\":773:782   */\n      mul\n        /* \"#utility.yul\":802:832   */\n      tag_40\n        /* \"#utility.yul\":820:831   */\n      dup2\n        /* \"#utility.yul\":802:832   */\n      tag_27\n      jump\t// in\n    tag_40:\n        /* \"#utility.yul\":791:832   */\n      swap2\n      pop\n        /* \"#utility.yul\":981:982   */\n      dup3\n        /* \"#utility.yul\":972:979   */\n      dup3\n        /* \"#utility.yul\":968:983   */\n      div\n        /* \"#utility.yul\":965:966   */\n      dup5\n        /* \"#utility.yul\":962:984   */\n      eq\n        /* \"#utility.yul\":942:943   */\n      dup4\n        /* \"#utility.yul\":935:944   */\n      iszero\n        /* \"#utility.yul\":915:998   */\n      or\n        /* \"#utility.yul\":892:1031   */\n      tag_41\n      jumpi\n        /* \"#utility.yul\":1011:1029   */\n      tag_42\n      tag_29\n      jump\t// in\n    tag_42:\n        /* \"#utility.yul\":892:1031   */\n    tag_41:\n        /* \"#utility.yul\":676:1038   */\n      pop\n        /* \"#utility.yul\":628:1038   */\n      swap3\n      swap2\n      pop\n      pop\n      jump\t// out\n        /* \"#utility.yul\":1044:1238   */\n    tag_26:\n        /* \"#utility.yul\":1084:1088   */\n      0x00\n        /* \"#utility.yul\":1104:1124   */\n      tag_44\n        /* \"#utility.yul\":1122:1123   */\n      dup3\n        /* \"#utility.yul\":1104:1124   */\n      tag_27\n      jump\t// in\n    tag_44:\n        /* \"#utility.yul\":1099:1124   */\n      swap2\n      pop\n        /* \"#utility.yul\":1138:1158   */\n      tag_45\n        /* \"#utility.yul\":1156:1157   */\n      dup4\n        /* \"#utility.yul\":1138:1158   */\n      tag_27\n      jump\t// in\n    tag_45:\n        /* \"#utility.yul\":1133:1158   */\n      swap3\n      pop\n        /* \"#utility.yul\":1182:1183   */\n      dup3\n        /* \"#utility.yul\":1179:1180   */\n      dup3\n        /* \"#utility.yul\":1175:1184   */\n      sub\n        /* \"#utility.yul\":1167:1184   */\n      swap1\n      pop\n        /* \"#utility.yul\":1206:1207   */\n      dup2\n        /* \"#utility.yul\":1200:1204   */\n      dup2\n        /* \"#utility.yul\":1197:1208   */\n      gt\n        /* \"#utility.yul\":1194:1231   */\n      iszero\n      tag_46\n      jumpi\n        /* \"#utility.yul\":1211:1229   */\n      tag_47\n      tag_29\n      jump\t// in\n    tag_47:\n        /* \"#utility.yul\":1194:1231   */\n    tag_46:\n        /* \"#utility.yul\":1044:1238   */\n      swap3\n      swap2\n      pop\n      pop\n      jump\t// out\n\n    auxdata: 0xa2646970667358221220c15b00c5726c56daa8607ce622cb1b01ae9cb11ac5deab3c68bc99ea86464d2264736f6c634300081a0033\n}\n",
				"bytecode": {
					"linkReferences": {},
					"object": "608060405261012c5f55600c600155602f600255348015601d575f80fd5b506102258061002b5f395ff3fe608060405234801561000f575f80fd5b506004361061004a575f3560e01c80630dbe671f1461004e57806326121ff01461006c5780634bb278f31461008a5780634df7e3d0146100a8575b5f80fd5b6100566100c6565b6040516100639190610135565b60405180910390f35b6100746100cb565b6040516100819190610135565b60405180910390f35b6100926100d1565b60405161009f9190610135565b60405180910390f35b6100b0610117565b6040516100bd9190610135565b60405180910390f35b5f5481565b60025481565b5f80601790505f545f54101580156100ec5750600254600154105b156101105780816100fd919061017b565b90506001548161010d91906101bc565b90505b8091505090565b60015481565b5f819050919050565b61012f8161011d565b82525050565b5f6020820190506101485f830184610126565b92915050565b7f4e487b71000000000000000000000000000000000000000000000000000000005f52601160045260245ffd5b5f6101858261011d565b91506101908361011d565b925082820261019e8161011d565b915082820484148315176101b5576101b461014e565b5b5092915050565b5f6101c68261011d565b91506101d18361011d565b92508282039050818111156101e9576101e861014e565b5b9291505056fea2646970667358221220c15b00c5726c56daa8607ce622cb1b01ae9cb11ac5deab3c68bc99ea86464d2264736f6c634300081a0033",
					"opcodes": "PUSH1 0x80 PUSH1 0x40 MSTORE PUSH2 0x12C PUSH0 SSTORE PUSH1 0xC PUSH1 0x1 SSTORE PUSH1 0x2F PUSH1 0x2 SSTORE CALLVALUE DUP1 ISZERO PUSH1 0x1D JUMPI PUSH0 DUP1 REVERT JUMPDEST POP PUSH2 0x225 DUP1 PUSH2 0x2B PUSH0 CODECOPY PUSH0 RETURN INVALID PUSH1 0x80 PUSH1 0x40 MSTORE CALLVALUE DUP1 ISZERO PUSH2 0xF JUMPI PUSH0 DUP1 REVERT JUMPDEST POP PUSH1 0x4 CALLDATASIZE LT PUSH2 0x4A JUMPI PUSH0 CALLDATALOAD PUSH1 0xE0 SHR DUP1 PUSH4 0xDBE671F EQ PUSH2 0x4E JUMPI DUP1 PUSH4 0x26121FF0 EQ PUSH2 0x6C JUMPI DUP1 PUSH4 0x4BB278F3 EQ PUSH2 0x8A JUMPI DUP1 PUSH4 0x4DF7E3D0 EQ PUSH2 0xA8 JUMPI JUMPDEST PUSH0 DUP1 REVERT JUMPDEST PUSH2 0x56 PUSH2 0xC6 JUMP JUMPDEST PUSH1 0x40 MLOAD PUSH2 0x63 SWAP2 SWAP1 PUSH2 0x135 JUMP JUMPDEST PUSH1 0x40 MLOAD DUP1 SWAP2 SUB SWAP1 RETURN JUMPDEST PUSH2 0x74 PUSH2 0xCB JUMP JUMPDEST PUSH1 0x40 MLOAD PUSH2 0x81 SWAP2 SWAP1 PUSH2 0x135 JUMP JUMPDEST PUSH1 0x40 MLOAD DUP1 SWAP2 SUB SWAP1 RETURN JUMPDEST PUSH2 0x92 PUSH2 0xD1 JUMP JUMPDEST PUSH1 0x40 MLOAD PUSH2 0x9F SWAP2 SWAP1 PUSH2 0x135 JUMP JUMPDEST PUSH1 0x40 MLOAD DUP1 SWAP2 SUB SWAP1 RETURN JUMPDEST PUSH2 0xB0 PUSH2 0x117 JUMP JUMPDEST PUSH1 0x40 MLOAD PUSH2 0xBD SWAP2 SWAP1 PUSH2 0x135 JUMP JUMPDEST PUSH1 0x40 MLOAD DUP1 SWAP2 SUB SWAP1 RETURN JUMPDEST PUSH0 SLOAD DUP2 JUMP JUMPDEST PUSH1 0x2 SLOAD DUP2 JUMP JUMPDEST PUSH0 DUP1 PUSH1 0x17 SWAP1 POP PUSH0 SLOAD PUSH0 SLOAD LT ISZERO DUP1 ISZERO PUSH2 0xEC JUMPI POP PUSH1 0x2 SLOAD PUSH1 0x1 SLOAD LT JUMPDEST ISZERO PUSH2 0x110 JUMPI DUP1 DUP2 PUSH2 0xFD SWAP2 SWAP1 PUSH2 0x17B JUMP JUMPDEST SWAP1 POP PUSH1 0x1 SLOAD DUP2 PUSH2 0x10D SWAP2 SWAP1 PUSH2 0x1BC JUMP JUMPDEST SWAP1 POP JUMPDEST DUP1 SWAP2 POP POP SWAP1 JUMP JUMPDEST PUSH1 0x1 SLOAD DUP2 JUMP JUMPDEST PUSH0 DUP2 SWAP1 POP SWAP2 SWAP1 POP JUMP JUMPDEST PUSH2 0x12F DUP2 PUSH2 0x11D JUMP JUMPDEST DUP3 MSTORE POP POP JUMP JUMPDEST PUSH0 PUSH1 0x20 DUP3 ADD SWAP1 POP PUSH2 0x148 PUSH0 DUP4 ADD DUP5 PUSH2 0x126 JUMP JUMPDEST SWAP3 SWAP2 POP POP JUMP JUMPDEST PUSH32 0x4E487B7100000000000000000000000000000000000000000000000000000000 PUSH0 MSTORE PUSH1 0x11 PUSH1 0x4 MSTORE PUSH1 0x24 PUSH0 REVERT JUMPDEST PUSH0 PUSH2 0x185 DUP3 PUSH2 0x11D JUMP JUMPDEST SWAP2 POP PUSH2 0x190 DUP4 PUSH2 0x11D JUMP JUMPDEST SWAP3 POP DUP3 DUP3 MUL PUSH2 0x19E DUP2 PUSH2 0x11D JUMP JUMPDEST SWAP2 POP DUP3 DUP3 DIV DUP5 EQ DUP4 ISZERO OR PUSH2 0x1B5 JUMPI PUSH2 0x1B4 PUSH2 0x14E JUMP JUMPDEST JUMPDEST POP SWAP3 SWAP2 POP POP JUMP JUMPDEST PUSH0 PUSH2 0x1C6 DUP3 PUSH2 0x11D JUMP JUMPDEST SWAP2 POP PUSH2 0x1D1 DUP4 PUSH2 0x11D JUMP JUMPDEST SWAP3 POP DUP3 DUP3 SUB SWAP1 POP DUP2 DUP2 GT ISZERO PUSH2 0x1E9 JUMPI PUSH2 0x1E8 PUSH2 0x14E JUMP JUMPDEST JUMPDEST SWAP3 SWAP2 POP POP JUMP INVALID LOG2 PUSH5 0x6970667358 0x22 SLT KECCAK256 0xC1 JUMPDEST STOP 0xC5 PUSH19 0x6C56DAA8607CE622CB1B01AE9CB11AC5DEAB3C PUSH9 0xBC99EA86464D226473 PUSH16 0x6C634300081A00330000000000000000 "
				},
				"gasEstimates": {
					"creation": {
						"codeDepositCost": "109800",
						"executionCost": "66474",
						"totalCost": "176274"
					},
					"external": {
						"a()": "2402",
						"b()": "2469",
						"f()": "2425",
						"finalize()": "infinite"
					}
				},
				"methodIdentifiers": {
					"a()": "0dbe671f",
					"b()": "4df7e3d0",
					"f()": "26121ff0",
					"finalize()": "4bb278f3"
				}
			},
			"storageLayout": {
				"storage": [
					{
						"astId": 4,
						"contract": "exercise1b.sol:FinalExercise",
						"label": "a",
						"offset": 0,
						"slot": "0",
						"type": "t_uint256"
					},
					{
						"astId": 7,
						"contract": "exercise1b.sol:FinalExercise",
						"label": "b",
						"offset": 0,
						"slot": "1",
						"type": "t_uint256"
					},
					{
						"astId": 10,
						"contract": "exercise1b.sol:FinalExercise",
						"label": "f",
						"offset": 0,
						"slot": "2",
						"type": "t_uint256"
					}
				],
				"types": {
					"t_uint256": {
						"encoding": "inplace",
						"label": "uint256",
						"numberOfBytes": "32"
					}
				}
			},
			"userdoc": {
				"kind": "user",
				"methods": {},
				"version": 1
			}
		}
	}
}