{
	"class_hands_on/calculator.sol": {
		"ArithmeticExercises": {
			"abi": [
				{
					"inputs": [],
					"name": "arithmeticResults",
					"outputs": [
						{
							"internalType": "uint256",
							"name": "",
							"type": "uint256"
						},
						{
							"internalType": "uint256",
							"name": "",
							"type": "uint256"
						},
						{
							"internalType": "uint256",
							"name": "",
							"type": "uint256"
						},
						{
							"internalType": "uint256",
							"name": "",
							"type": "uint256"
						}
					],
					"stateMutability": "pure",
					"type": "function"
				},
				{
					"inputs": [],
					"name": "calculator",
					"outputs": [
						{
							"internalType": "uint256",
							"name": "",
							"type": "uint256"
						}
					],
					"stateMutability": "pure",
					"type": "function"
				},
				{
					"inputs": [],
					"name": "findRemainder",
					"outputs": [
						{
							"internalType": "uint256",
							"name": "",
							"type": "uint256"
						}
					],
					"stateMutability": "pure",
					"type": "function"
				}
			],
			"devdoc": {
				"kind": "dev",
				"methods": {},
				"version": 1
			},
			"evm": {
				"assembly": "    /* \"class_hands_on/calculator.sol\":60:1050  contract ArithmeticExercises {... */\n  mstore(0x40, 0x80)\n  callvalue\n  dup1\n  iszero\n  tag_1\n  jumpi\n  0x00\n  dup1\n  revert\ntag_1:\n  pop\n  dataSize(sub_0)\n  dup1\n  dataOffset(sub_0)\n  0x00\n  codecopy\n  0x00\n  return\nstop\n\nsub_0: assembly {\n        /* \"class_hands_on/calculator.sol\":60:1050  contract ArithmeticExercises {... */\n      mstore(0x40, 0x80)\n      callvalue\n      dup1\n      iszero\n      tag_1\n      jumpi\n      0x00\n      dup1\n      revert\n    tag_1:\n      pop\n      jumpi(tag_2, lt(calldatasize, 0x04))\n      shr(0xe0, calldataload(0x00))\n      dup1\n      0xb4a44e3f\n      eq\n      tag_3\n      jumpi\n      dup1\n      0xce3e39c0\n      eq\n      tag_4\n      jumpi\n      dup1\n      0xe471e684\n      eq\n      tag_5\n      jumpi\n    tag_2:\n      0x00\n      dup1\n      revert\n        /* \"class_hands_on/calculator.sol\":449:559  function findRemainder() public pure returns (uint) {... */\n    tag_3:\n      tag_6\n      tag_7\n      jump\t// in\n    tag_6:\n      mload(0x40)\n      tag_8\n      swap2\n      swap1\n      tag_9\n      jump\t// in\n    tag_8:\n      mload(0x40)\n      dup1\n      swap2\n      sub\n      swap1\n      return\n        /* \"class_hands_on/calculator.sol\":167:393  function calculator() public pure returns (uint) {... */\n    tag_4:\n      tag_10\n      tag_11\n      jump\t// in\n    tag_10:\n      mload(0x40)\n      tag_12\n      swap2\n      swap1\n      tag_9\n      jump\t// in\n    tag_12:\n      mload(0x40)\n      dup1\n      swap2\n      sub\n      swap1\n      return\n        /* \"class_hands_on/calculator.sol\":596:1047  function arithmeticResults() public pure returns (uint, uint, uint, uint) {... */\n    tag_5:\n      tag_13\n      tag_14\n      jump\t// in\n    tag_13:\n      mload(0x40)\n      tag_15\n      swap5\n      swap4\n      swap3\n      swap2\n      swap1\n      tag_16\n      jump\t// in\n    tag_15:\n      mload(0x40)\n      dup1\n      swap2\n      sub\n      swap1\n      return\n        /* \"class_hands_on/calculator.sol\":449:559  function findRemainder() public pure returns (uint) {... */\n    tag_7:\n        /* \"class_hands_on/calculator.sol\":495:499  uint */\n      0x00\n        /* \"class_hands_on/calculator.sol\":519:524  3 % 4 */\n      0x03\n        /* \"class_hands_on/calculator.sol\":512:524  return 3 % 4 */\n      swap1\n      pop\n        /* \"class_hands_on/calculator.sol\":449:559  function findRemainder() public pure returns (uint) {... */\n      swap1\n      jump\t// out\n        /* \"class_hands_on/calculator.sol\":167:393  function calculator() public pure returns (uint) {... */\n    tag_11:\n        /* \"class_hands_on/calculator.sol\":210:214  uint */\n      0x00\n        /* \"class_hands_on/calculator.sol\":227:233  uint a */\n      dup1\n        /* \"class_hands_on/calculator.sol\":236:237  5 */\n      0x05\n        /* \"class_hands_on/calculator.sol\":227:237  uint a = 5 */\n      swap1\n      pop\n        /* \"class_hands_on/calculator.sol\":248:259  uint result */\n      0x00\n        /* \"class_hands_on/calculator.sol\":262:265  a-- */\n      dup2\n      dup1\n      tag_19\n      swap1\n      tag_20\n      jump\t// in\n    tag_19:\n      swap3\n      pop\n        /* \"class_hands_on/calculator.sol\":248:265  uint result = a-- */\n      swap1\n      pop\n        /* \"class_hands_on/calculator.sol\":337:343  result */\n      dup1\n        /* \"class_hands_on/calculator.sol\":330:343  return result */\n      swap3\n      pop\n      pop\n      pop\n        /* \"class_hands_on/calculator.sol\":167:393  function calculator() public pure returns (uint) {... */\n      swap1\n      jump\t// out\n        /* \"class_hands_on/calculator.sol\":596:1047  function arithmeticResults() public pure returns (uint, uint, uint, uint) {... */\n    tag_14:\n        /* \"class_hands_on/calculator.sol\":646:650  uint */\n      0x00\n        /* \"class_hands_on/calculator.sol\":652:656  uint */\n      dup1\n        /* \"class_hands_on/calculator.sol\":658:662  uint */\n      0x00\n        /* \"class_hands_on/calculator.sol\":664:668  uint */\n      dup1\n        /* \"class_hands_on/calculator.sol\":681:687  uint a */\n      0x00\n        /* \"class_hands_on/calculator.sol\":690:691  2 */\n      0x02\n        /* \"class_hands_on/calculator.sol\":681:691  uint a = 2 */\n      swap1\n      pop\n        /* \"class_hands_on/calculator.sol\":702:708  uint b */\n      0x00\n        /* \"class_hands_on/calculator.sol\":711:713  12 */\n      0x0c\n        /* \"class_hands_on/calculator.sol\":702:713  uint b = 12 */\n      swap1\n      pop\n        /* \"class_hands_on/calculator.sol\":726:734  uint ex1 */\n      0x00\n        /* \"class_hands_on/calculator.sol\":749:750  a */\n      dup3\n        /* \"class_hands_on/calculator.sol\":745:746  b */\n      dup3\n        /* \"class_hands_on/calculator.sol\":741:742  b */\n      dup4\n        /* \"class_hands_on/calculator.sol\":737:738  a */\n      dup6\n        /* \"class_hands_on/calculator.sol\":737:742  a + b */\n      tag_22\n      swap2\n      swap1\n      tag_23\n      jump\t// in\n    tag_22:\n        /* \"class_hands_on/calculator.sol\":737:746  a + b - b */\n      tag_24\n      swap2\n      swap1\n      tag_25\n      jump\t// in\n    tag_24:\n        /* \"class_hands_on/calculator.sol\":737:750  a + b - b + a */\n      tag_26\n      swap2\n      swap1\n      tag_23\n      jump\t// in\n    tag_26:\n        /* \"class_hands_on/calculator.sol\":726:750  uint ex1 = a + b - b + a */\n      swap1\n      pop\n        /* \"class_hands_on/calculator.sol\":786:794  uint ex2 */\n      0x00\n        /* \"class_hands_on/calculator.sol\":809:810  1 */\n      0x01\n        /* \"class_hands_on/calculator.sol\":805:806  b */\n      dup4\n        /* \"class_hands_on/calculator.sol\":801:802  b */\n      dup5\n        /* \"class_hands_on/calculator.sol\":797:798  2 */\n      0x02\n        /* \"class_hands_on/calculator.sol\":797:802  2 * b */\n      tag_27\n      swap2\n      swap1\n      tag_28\n      jump\t// in\n    tag_27:\n        /* \"class_hands_on/calculator.sol\":797:806  2 * b * b */\n      tag_29\n      swap2\n      swap1\n      tag_28\n      jump\t// in\n    tag_29:\n        /* \"class_hands_on/calculator.sol\":797:810  2 * b * b - 1 */\n      tag_30\n      swap2\n      swap1\n      tag_25\n      jump\t// in\n    tag_30:\n        /* \"class_hands_on/calculator.sol\":786:810  uint ex2 = 2 * b * b - 1 */\n      swap1\n      pop\n        /* \"class_hands_on/calculator.sol\":848:856  uint ex3 */\n      0x00\n        /* \"class_hands_on/calculator.sol\":872:875  a++ */\n      dup5\n      dup1\n      tag_31\n      swap1\n      tag_32\n      jump\t// in\n    tag_31:\n      swap6\n      pop\n        /* \"class_hands_on/calculator.sol\":864:867  b++ */\n      dup5\n      dup1\n      tag_33\n      swap1\n      tag_32\n      jump\t// in\n    tag_33:\n      swap6\n      pop\n        /* \"class_hands_on/calculator.sol\":859:860  b */\n      dup6\n        /* \"class_hands_on/calculator.sol\":859:868  b + (b++) */\n      tag_34\n      swap2\n      swap1\n      tag_23\n      jump\t// in\n    tag_34:\n        /* \"class_hands_on/calculator.sol\":859:876  b + (b++) + (a++) */\n      tag_35\n      swap2\n      swap1\n      tag_23\n      jump\t// in\n    tag_35:\n        /* \"class_hands_on/calculator.sol\":848:876  uint ex3 = b + (b++) + (a++) */\n      swap1\n      pop\n        /* \"class_hands_on/calculator.sol\":945:953  uint ex4 */\n      0x00\n        /* \"class_hands_on/calculator.sol\":966:967  3 */\n      0x03\n        /* \"class_hands_on/calculator.sol\":961:962  a */\n      dup7\n        /* \"class_hands_on/calculator.sol\":957:958  b */\n      dup7\n        /* \"class_hands_on/calculator.sol\":957:962  b % a */\n      tag_36\n      swap2\n      swap1\n      tag_37\n      jump\t// in\n    tag_36:\n        /* \"class_hands_on/calculator.sol\":956:967  (b % a) + 3 */\n      tag_38\n      swap2\n      swap1\n      tag_23\n      jump\t// in\n    tag_38:\n        /* \"class_hands_on/calculator.sol\":945:967  uint ex4 = (b % a) + 3 */\n      swap1\n      pop\n        /* \"class_hands_on/calculator.sol\":1020:1023  ex1 */\n      dup4\n        /* \"class_hands_on/calculator.sol\":1025:1028  ex2 */\n      dup4\n        /* \"class_hands_on/calculator.sol\":1030:1033  ex3 */\n      dup4\n        /* \"class_hands_on/calculator.sol\":1035:1038  ex4 */\n      dup4\n        /* \"class_hands_on/calculator.sol\":1012:1039  return (ex1, ex2, ex3, ex4) */\n      swap10\n      pop\n      swap10\n      pop\n      swap10\n      pop\n      swap10\n      pop\n      pop\n      pop\n      pop\n      pop\n      pop\n      pop\n        /* \"class_hands_on/calculator.sol\":596:1047  function arithmeticResults() public pure returns (uint, uint, uint, uint) {... */\n      swap1\n      swap2\n      swap3\n      swap4\n      jump\t// out\n        /* \"#utility.yul\":7:84   */\n    tag_39:\n        /* \"#utility.yul\":44:51   */\n      0x00\n        /* \"#utility.yul\":73:78   */\n      dup2\n        /* \"#utility.yul\":62:78   */\n      swap1\n      pop\n        /* \"#utility.yul\":7:84   */\n      swap2\n      swap1\n      pop\n      jump\t// out\n        /* \"#utility.yul\":90:208   */\n    tag_40:\n        /* \"#utility.yul\":177:201   */\n      tag_46\n        /* \"#utility.yul\":195:200   */\n      dup2\n        /* \"#utility.yul\":177:201   */\n      tag_39\n      jump\t// in\n    tag_46:\n        /* \"#utility.yul\":172:175   */\n      dup3\n        /* \"#utility.yul\":165:202   */\n      mstore\n        /* \"#utility.yul\":90:208   */\n      pop\n      pop\n      jump\t// out\n        /* \"#utility.yul\":214:436   */\n    tag_9:\n        /* \"#utility.yul\":307:311   */\n      0x00\n        /* \"#utility.yul\":345:347   */\n      0x20\n        /* \"#utility.yul\":334:343   */\n      dup3\n        /* \"#utility.yul\":330:348   */\n      add\n        /* \"#utility.yul\":322:348   */\n      swap1\n      pop\n        /* \"#utility.yul\":358:429   */\n      tag_48\n        /* \"#utility.yul\":426:427   */\n      0x00\n        /* \"#utility.yul\":415:424   */\n      dup4\n        /* \"#utility.yul\":411:428   */\n      add\n        /* \"#utility.yul\":402:408   */\n      dup5\n        /* \"#utility.yul\":358:429   */\n      tag_40\n      jump\t// in\n    tag_48:\n        /* \"#utility.yul\":214:436   */\n      swap3\n      swap2\n      pop\n      pop\n      jump\t// out\n        /* \"#utility.yul\":442:995   */\n    tag_16:\n        /* \"#utility.yul\":619:623   */\n      0x00\n        /* \"#utility.yul\":657:660   */\n      0x80\n        /* \"#utility.yul\":646:655   */\n      dup3\n        /* \"#utility.yul\":642:661   */\n      add\n        /* \"#utility.yul\":634:661   */\n      swap1\n      pop\n        /* \"#utility.yul\":671:742   */\n      tag_50\n        /* \"#utility.yul\":739:740   */\n      0x00\n        /* \"#utility.yul\":728:737   */\n      dup4\n        /* \"#utility.yul\":724:741   */\n      add\n        /* \"#utility.yul\":715:721   */\n      dup8\n        /* \"#utility.yul\":671:742   */\n      tag_40\n      jump\t// in\n    tag_50:\n        /* \"#utility.yul\":752:824   */\n      tag_51\n        /* \"#utility.yul\":820:822   */\n      0x20\n        /* \"#utility.yul\":809:818   */\n      dup4\n        /* \"#utility.yul\":805:823   */\n      add\n        /* \"#utility.yul\":796:802   */\n      dup7\n        /* \"#utility.yul\":752:824   */\n      tag_40\n      jump\t// in\n    tag_51:\n        /* \"#utility.yul\":834:906   */\n      tag_52\n        /* \"#utility.yul\":902:904   */\n      0x40\n        /* \"#utility.yul\":891:900   */\n      dup4\n        /* \"#utility.yul\":887:905   */\n      add\n        /* \"#utility.yul\":878:884   */\n      dup6\n        /* \"#utility.yul\":834:906   */\n      tag_40\n      jump\t// in\n    tag_52:\n        /* \"#utility.yul\":916:988   */\n      tag_53\n        /* \"#utility.yul\":984:986   */\n      0x60\n        /* \"#utility.yul\":973:982   */\n      dup4\n        /* \"#utility.yul\":969:987   */\n      add\n        /* \"#utility.yul\":960:966   */\n      dup5\n        /* \"#utility.yul\":916:988   */\n      tag_40\n      jump\t// in\n    tag_53:\n        /* \"#utility.yul\":442:995   */\n      swap6\n      swap5\n      pop\n      pop\n      pop\n      pop\n      pop\n      jump\t// out\n        /* \"#utility.yul\":1001:1181   */\n    tag_41:\n        /* \"#utility.yul\":1049:1126   */\n      0x4e487b7100000000000000000000000000000000000000000000000000000000\n        /* \"#utility.yul\":1046:1047   */\n      0x00\n        /* \"#utility.yul\":1039:1127   */\n      mstore\n        /* \"#utility.yul\":1146:1150   */\n      0x11\n        /* \"#utility.yul\":1143:1144   */\n      0x04\n        /* \"#utility.yul\":1136:1151   */\n      mstore\n        /* \"#utility.yul\":1170:1174   */\n      0x24\n        /* \"#utility.yul\":1167:1168   */\n      0x00\n        /* \"#utility.yul\":1160:1175   */\n      revert\n        /* \"#utility.yul\":1187:1358   */\n    tag_20:\n        /* \"#utility.yul\":1226:1229   */\n      0x00\n        /* \"#utility.yul\":1249:1273   */\n      tag_56\n        /* \"#utility.yul\":1267:1272   */\n      dup3\n        /* \"#utility.yul\":1249:1273   */\n      tag_39\n      jump\t// in\n    tag_56:\n        /* \"#utility.yul\":1240:1273   */\n      swap2\n      pop\n        /* \"#utility.yul\":1295:1299   */\n      0x00\n        /* \"#utility.yul\":1288:1293   */\n      dup3\n        /* \"#utility.yul\":1285:1300   */\n      sub\n        /* \"#utility.yul\":1282:1323   */\n      tag_57\n      jumpi\n        /* \"#utility.yul\":1303:1321   */\n      tag_58\n      tag_41\n      jump\t// in\n    tag_58:\n        /* \"#utility.yul\":1282:1323   */\n    tag_57:\n        /* \"#utility.yul\":1350:1351   */\n      0x01\n        /* \"#utility.yul\":1343:1348   */\n      dup3\n        /* \"#utility.yul\":1339:1352   */\n      sub\n        /* \"#utility.yul\":1332:1352   */\n      swap1\n      pop\n        /* \"#utility.yul\":1187:1358   */\n      swap2\n      swap1\n      pop\n      jump\t// out\n        /* \"#utility.yul\":1364:1555   */\n    tag_23:\n        /* \"#utility.yul\":1404:1407   */\n      0x00\n        /* \"#utility.yul\":1423:1443   */\n      tag_60\n        /* \"#utility.yul\":1441:1442   */\n      dup3\n        /* \"#utility.yul\":1423:1443   */\n      tag_39\n      jump\t// in\n    tag_60:\n        /* \"#utility.yul\":1418:1443   */\n      swap2\n      pop\n        /* \"#utility.yul\":1457:1477   */\n      tag_61\n        /* \"#utility.yul\":1475:1476   */\n      dup4\n        /* \"#utility.yul\":1457:1477   */\n      tag_39\n      jump\t// in\n    tag_61:\n        /* \"#utility.yul\":1452:1477   */\n      swap3\n      pop\n        /* \"#utility.yul\":1500:1501   */\n      dup3\n        /* \"#utility.yul\":1497:1498   */\n      dup3\n        /* \"#utility.yul\":1493:1502   */\n      add\n        /* \"#utility.yul\":1486:1502   */\n      swap1\n      pop\n        /* \"#utility.yul\":1521:1524   */\n      dup1\n        /* \"#utility.yul\":1518:1519   */\n      dup3\n        /* \"#utility.yul\":1515:1525   */\n      gt\n        /* \"#utility.yul\":1512:1548   */\n      iszero\n      tag_62\n      jumpi\n        /* \"#utility.yul\":1528:1546   */\n      tag_63\n      tag_41\n      jump\t// in\n    tag_63:\n        /* \"#utility.yul\":1512:1548   */\n    tag_62:\n        /* \"#utility.yul\":1364:1555   */\n      swap3\n      swap2\n      pop\n      pop\n      jump\t// out\n        /* \"#utility.yul\":1561:1755   */\n    tag_25:\n        /* \"#utility.yul\":1601:1605   */\n      0x00\n        /* \"#utility.yul\":1621:1641   */\n      tag_65\n        /* \"#utility.yul\":1639:1640   */\n      dup3\n        /* \"#utility.yul\":1621:1641   */\n      tag_39\n      jump\t// in\n    tag_65:\n        /* \"#utility.yul\":1616:1641   */\n      swap2\n      pop\n        /* \"#utility.yul\":1655:1675   */\n      tag_66\n        /* \"#utility.yul\":1673:1674   */\n      dup4\n        /* \"#utility.yul\":1655:1675   */\n      tag_39\n      jump\t// in\n    tag_66:\n        /* \"#utility.yul\":1650:1675   */\n      swap3\n      pop\n        /* \"#utility.yul\":1699:1700   */\n      dup3\n        /* \"#utility.yul\":1696:1697   */\n      dup3\n        /* \"#utility.yul\":1692:1701   */\n      sub\n        /* \"#utility.yul\":1684:1701   */\n      swap1\n      pop\n        /* \"#utility.yul\":1723:1724   */\n      dup2\n        /* \"#utility.yul\":1717:1721   */\n      dup2\n        /* \"#utility.yul\":1714:1725   */\n      gt\n        /* \"#utility.yul\":1711:1748   */\n      iszero\n      tag_67\n      jumpi\n        /* \"#utility.yul\":1728:1746   */\n      tag_68\n      tag_41\n      jump\t// in\n    tag_68:\n        /* \"#utility.yul\":1711:1748   */\n    tag_67:\n        /* \"#utility.yul\":1561:1755   */\n      swap3\n      swap2\n      pop\n      pop\n      jump\t// out\n        /* \"#utility.yul\":1761:2171   */\n    tag_28:\n        /* \"#utility.yul\":1801:1808   */\n      0x00\n        /* \"#utility.yul\":1824:1844   */\n      tag_70\n        /* \"#utility.yul\":1842:1843   */\n      dup3\n        /* \"#utility.yul\":1824:1844   */\n      tag_39\n      jump\t// in\n    tag_70:\n        /* \"#utility.yul\":1819:1844   */\n      swap2\n      pop\n        /* \"#utility.yul\":1858:1878   */\n      tag_71\n        /* \"#utility.yul\":1876:1877   */\n      dup4\n        /* \"#utility.yul\":1858:1878   */\n      tag_39\n      jump\t// in\n    tag_71:\n        /* \"#utility.yul\":1853:1878   */\n      swap3\n      pop\n        /* \"#utility.yul\":1913:1914   */\n      dup3\n        /* \"#utility.yul\":1910:1911   */\n      dup3\n        /* \"#utility.yul\":1906:1915   */\n      mul\n        /* \"#utility.yul\":1935:1965   */\n      tag_72\n        /* \"#utility.yul\":1953:1964   */\n      dup2\n        /* \"#utility.yul\":1935:1965   */\n      tag_39\n      jump\t// in\n    tag_72:\n        /* \"#utility.yul\":1924:1965   */\n      swap2\n      pop\n        /* \"#utility.yul\":2114:2115   */\n      dup3\n        /* \"#utility.yul\":2105:2112   */\n      dup3\n        /* \"#utility.yul\":2101:2116   */\n      div\n        /* \"#utility.yul\":2098:2099   */\n      dup5\n        /* \"#utility.yul\":2095:2117   */\n      eq\n        /* \"#utility.yul\":2075:2076   */\n      dup4\n        /* \"#utility.yul\":2068:2077   */\n      iszero\n        /* \"#utility.yul\":2048:2131   */\n      or\n        /* \"#utility.yul\":2025:2164   */\n      tag_73\n      jumpi\n        /* \"#utility.yul\":2144:2162   */\n      tag_74\n      tag_41\n      jump\t// in\n    tag_74:\n        /* \"#utility.yul\":2025:2164   */\n    tag_73:\n        /* \"#utility.yul\":1809:2171   */\n      pop\n        /* \"#utility.yul\":1761:2171   */\n      swap3\n      swap2\n      pop\n      pop\n      jump\t// out\n        /* \"#utility.yul\":2177:2410   */\n    tag_32:\n        /* \"#utility.yul\":2216:2219   */\n      0x00\n        /* \"#utility.yul\":2239:2263   */\n      tag_76\n        /* \"#utility.yul\":2257:2262   */\n      dup3\n        /* \"#utility.yul\":2239:2263   */\n      tag_39\n      jump\t// in\n    tag_76:\n        /* \"#utility.yul\":2230:2263   */\n      swap2\n      pop\n        /* \"#utility.yul\":2285:2351   */\n      0xffffffffffffffffffffffffffffffffffffffffffffffffffffffffffffffff\n        /* \"#utility.yul\":2278:2283   */\n      dup3\n        /* \"#utility.yul\":2275:2352   */\n      sub\n        /* \"#utility.yul\":2272:2375   */\n      tag_77\n      jumpi\n        /* \"#utility.yul\":2355:2373   */\n      tag_78\n      tag_41\n      jump\t// in\n    tag_78:\n        /* \"#utility.yul\":2272:2375   */\n    tag_77:\n        /* \"#utility.yul\":2402:2403   */\n      0x01\n        /* \"#utility.yul\":2395:2400   */\n      dup3\n        /* \"#utility.yul\":2391:2404   */\n      add\n        /* \"#utility.yul\":2384:2404   */\n      swap1\n      pop\n        /* \"#utility.yul\":2177:2410   */\n      swap2\n      swap1\n      pop\n      jump\t// out\n        /* \"#utility.yul\":2416:2596   */\n    tag_42:\n        /* \"#utility.yul\":2464:2541   */\n      0x4e487b7100000000000000000000000000000000000000000000000000000000\n        /* \"#utility.yul\":2461:2462   */\n      0x00\n        /* \"#utility.yul\":2454:2542   */\n      mstore\n        /* \"#utility.yul\":2561:2565   */\n      0x12\n        /* \"#utility.yul\":2558:2559   */\n      0x04\n        /* \"#utility.yul\":2551:2566   */\n      mstore\n        /* \"#utility.yul\":2585:2589   */\n      0x24\n        /* \"#utility.yul\":2582:2583   */\n      0x00\n        /* \"#utility.yul\":2575:2590   */\n      revert\n        /* \"#utility.yul\":2602:2778   */\n    tag_37:\n        /* \"#utility.yul\":2634:2635   */\n      0x00\n        /* \"#utility.yul\":2651:2671   */\n      tag_81\n        /* \"#utility.yul\":2669:2670   */\n      dup3\n        /* \"#utility.yul\":2651:2671   */\n      tag_39\n      jump\t// in\n    tag_81:\n        /* \"#utility.yul\":2646:2671   */\n      swap2\n      pop\n        /* \"#utility.yul\":2685:2705   */\n      tag_82\n        /* \"#utility.yul\":2703:2704   */\n      dup4\n        /* \"#utility.yul\":2685:2705   */\n      tag_39\n      jump\t// in\n    tag_82:\n        /* \"#utility.yul\":2680:2705   */\n      swap3\n      pop\n        /* \"#utility.yul\":2724:2725   */\n      dup3\n        /* \"#utility.yul\":2714:2749   */\n      tag_83\n      jumpi\n        /* \"#utility.yul\":2729:2747   */\n      tag_84\n      tag_42\n      jump\t// in\n    tag_84:\n        /* \"#utility.yul\":2714:2749   */\n    tag_83:\n        /* \"#utility.yul\":2770:2771   */\n      dup3\n        /* \"#utility.yul\":2767:2768   */\n      dup3\n        /* \"#utility.yul\":2763:2772   */\n      mod\n        /* \"#utility.yul\":2758:2772   */\n      swap1\n      pop\n        /* \"#utility.yul\":2602:2778   */\n      swap3\n      swap2\n      pop\n      pop\n      jump\t// out\n\n    auxdata: 0xa2646970667358221220ced44e1bc1e7f0962990234b92dabb47a0ac71ba907501b1700842993357dd0464736f6c634300081a0033\n}\n",
				"bytecode": {
					"linkReferences": {},
					"object": "6080604052348015600e575f80fd5b506103ce8061001c5f395ff3fe608060405234801561000f575f80fd5b506004361061003f575f3560e01c8063b4a44e3f14610043578063ce3e39c014610061578063e471e6841461007f575b5f80fd5b61004b6100a0565b604051610058919061019d565b60405180910390f35b6100696100a8565b604051610076919061019d565b60405180910390f35b6100876100c6565b60405161009794939291906101b6565b60405180910390f35b5f6003905090565b5f80600590505f81806100ba90610226565b92509050809250505090565b5f805f805f600290505f600c90505f828283856100e3919061024d565b6100ed9190610280565b6100f7919061024d565b90505f60018384600261010a91906102b3565b61011491906102b3565b61011e9190610280565b90505f848061012c906102f4565b95508480610139906102f4565b955085610146919061024d565b610150919061024d565b90505f600386866101619190610368565b61016b919061024d565b905083838383995099509950995050505050505090919293565b5f819050919050565b61019781610185565b82525050565b5f6020820190506101b05f83018461018e565b92915050565b5f6080820190506101c95f83018761018e565b6101d6602083018661018e565b6101e3604083018561018e565b6101f0606083018461018e565b95945050505050565b7f4e487b71000000000000000000000000000000000000000000000000000000005f52601160045260245ffd5b5f61023082610185565b91505f8203610242576102416101f9565b5b600182039050919050565b5f61025782610185565b915061026283610185565b925082820190508082111561027a576102796101f9565b5b92915050565b5f61028a82610185565b915061029583610185565b92508282039050818111156102ad576102ac6101f9565b5b92915050565b5f6102bd82610185565b91506102c883610185565b92508282026102d681610185565b915082820484148315176102ed576102ec6101f9565b5b5092915050565b5f6102fe82610185565b91507fffffffffffffffffffffffffffffffffffffffffffffffffffffffffffffffff82036103305761032f6101f9565b5b600182019050919050565b7f4e487b71000000000000000000000000000000000000000000000000000000005f52601260045260245ffd5b5f61037282610185565b915061037d83610185565b92508261038d5761038c61033b565b5b82820690509291505056fea2646970667358221220ced44e1bc1e7f0962990234b92dabb47a0ac71ba907501b1700842993357dd0464736f6c634300081a0033",
					"opcodes": "PUSH1 0x80 PUSH1 0x40 MSTORE CALLVALUE DUP1 ISZERO PUSH1 0xE JUMPI PUSH0 DUP1 REVERT JUMPDEST POP PUSH2 0x3CE DUP1 PUSH2 0x1C PUSH0 CODECOPY PUSH0 RETURN INVALID PUSH1 0x80 PUSH1 0x40 MSTORE CALLVALUE DUP1 ISZERO PUSH2 0xF JUMPI PUSH0 DUP1 REVERT JUMPDEST POP PUSH1 0x4 CALLDATASIZE LT PUSH2 0x3F JUMPI PUSH0 CALLDATALOAD PUSH1 0xE0 SHR DUP1 PUSH4 0xB4A44E3F EQ PUSH2 0x43 JUMPI DUP1 PUSH4 0xCE3E39C0 EQ PUSH2 0x61 JUMPI DUP1 PUSH4 0xE471E684 EQ PUSH2 0x7F JUMPI JUMPDEST PUSH0 DUP1 REVERT JUMPDEST PUSH2 0x4B PUSH2 0xA0 JUMP JUMPDEST PUSH1 0x40 MLOAD PUSH2 0x58 SWAP2 SWAP1 PUSH2 0x19D JUMP JUMPDEST PUSH1 0x40 MLOAD DUP1 SWAP2 SUB SWAP1 RETURN JUMPDEST PUSH2 0x69 PUSH2 0xA8 JUMP JUMPDEST PUSH1 0x40 MLOAD PUSH2 0x76 SWAP2 SWAP1 PUSH2 0x19D JUMP JUMPDEST PUSH1 0x40 MLOAD DUP1 SWAP2 SUB SWAP1 RETURN JUMPDEST PUSH2 0x87 PUSH2 0xC6 JUMP JUMPDEST PUSH1 0x40 MLOAD PUSH2 0x97 SWAP5 SWAP4 SWAP3 SWAP2 SWAP1 PUSH2 0x1B6 JUMP JUMPDEST PUSH1 0x40 MLOAD DUP1 SWAP2 SUB SWAP1 RETURN JUMPDEST PUSH0 PUSH1 0x3 SWAP1 POP SWAP1 JUMP JUMPDEST PUSH0 DUP1 PUSH1 0x5 SWAP1 POP PUSH0 DUP2 DUP1 PUSH2 0xBA SWAP1 PUSH2 0x226 JUMP JUMPDEST SWAP3 POP SWAP1 POP DUP1 SWAP3 POP POP POP SWAP1 JUMP JUMPDEST PUSH0 DUP1 PUSH0 DUP1 PUSH0 PUSH1 0x2 SWAP1 POP PUSH0 PUSH1 0xC SWAP1 POP PUSH0 DUP3 DUP3 DUP4 DUP6 PUSH2 0xE3 SWAP2 SWAP1 PUSH2 0x24D JUMP JUMPDEST PUSH2 0xED SWAP2 SWAP1 PUSH2 0x280 JUMP JUMPDEST PUSH2 0xF7 SWAP2 SWAP1 PUSH2 0x24D JUMP JUMPDEST SWAP1 POP PUSH0 PUSH1 0x1 DUP4 DUP5 PUSH1 0x2 PUSH2 0x10A SWAP2 SWAP1 PUSH2 0x2B3 JUMP JUMPDEST PUSH2 0x114 SWAP2 SWAP1 PUSH2 0x2B3 JUMP JUMPDEST PUSH2 0x11E SWAP2 SWAP1 PUSH2 0x280 JUMP JUMPDEST SWAP1 POP PUSH0 DUP5 DUP1 PUSH2 0x12C SWAP1 PUSH2 0x2F4 JUMP JUMPDEST SWAP6 POP DUP5 DUP1 PUSH2 0x139 SWAP1 PUSH2 0x2F4 JUMP JUMPDEST SWAP6 POP DUP6 PUSH2 0x146 SWAP2 SWAP1 PUSH2 0x24D JUMP JUMPDEST PUSH2 0x150 SWAP2 SWAP1 PUSH2 0x24D JUMP JUMPDEST SWAP1 POP PUSH0 PUSH1 0x3 DUP7 DUP7 PUSH2 0x161 SWAP2 SWAP1 PUSH2 0x368 JUMP JUMPDEST PUSH2 0x16B SWAP2 SWAP1 PUSH2 0x24D JUMP JUMPDEST SWAP1 POP DUP4 DUP4 DUP4 DUP4 SWAP10 POP SWAP10 POP SWAP10 POP SWAP10 POP POP POP POP POP POP POP SWAP1 SWAP2 SWAP3 SWAP4 JUMP JUMPDEST PUSH0 DUP2 SWAP1 POP SWAP2 SWAP1 POP JUMP JUMPDEST PUSH2 0x197 DUP2 PUSH2 0x185 JUMP JUMPDEST DUP3 MSTORE POP POP JUMP JUMPDEST PUSH0 PUSH1 0x20 DUP3 ADD SWAP1 POP PUSH2 0x1B0 PUSH0 DUP4 ADD DUP5 PUSH2 0x18E JUMP JUMPDEST SWAP3 SWAP2 POP POP JUMP JUMPDEST PUSH0 PUSH1 0x80 DUP3 ADD SWAP1 POP PUSH2 0x1C9 PUSH0 DUP4 ADD DUP8 PUSH2 0x18E JUMP JUMPDEST PUSH2 0x1D6 PUSH1 0x20 DUP4 ADD DUP7 PUSH2 0x18E JUMP JUMPDEST PUSH2 0x1E3 PUSH1 0x40 DUP4 ADD DUP6 PUSH2 0x18E JUMP JUMPDEST PUSH2 0x1F0 PUSH1 0x60 DUP4 ADD DUP5 PUSH2 0x18E JUMP JUMPDEST SWAP6 SWAP5 POP POP POP POP POP JUMP JUMPDEST PUSH32 0x4E487B7100000000000000000000000000000000000000000000000000000000 PUSH0 MSTORE PUSH1 0x11 PUSH1 0x4 MSTORE PUSH1 0x24 PUSH0 REVERT JUMPDEST PUSH0 PUSH2 0x230 DUP3 PUSH2 0x185 JUMP JUMPDEST SWAP2 POP PUSH0 DUP3 SUB PUSH2 0x242 JUMPI PUSH2 0x241 PUSH2 0x1F9 JUMP JUMPDEST JUMPDEST PUSH1 0x1 DUP3 SUB SWAP1 POP SWAP2 SWAP1 POP JUMP JUMPDEST PUSH0 PUSH2 0x257 DUP3 PUSH2 0x185 JUMP JUMPDEST SWAP2 POP PUSH2 0x262 DUP4 PUSH2 0x185 JUMP JUMPDEST SWAP3 POP DUP3 DUP3 ADD SWAP1 POP DUP1 DUP3 GT ISZERO PUSH2 0x27A JUMPI PUSH2 0x279 PUSH2 0x1F9 JUMP JUMPDEST JUMPDEST SWAP3 SWAP2 POP POP JUMP JUMPDEST PUSH0 PUSH2 0x28A DUP3 PUSH2 0x185 JUMP JUMPDEST SWAP2 POP PUSH2 0x295 DUP4 PUSH2 0x185 JUMP JUMPDEST SWAP3 POP DUP3 DUP3 SUB SWAP1 POP DUP2 DUP2 GT ISZERO PUSH2 0x2AD JUMPI PUSH2 0x2AC PUSH2 0x1F9 JUMP JUMPDEST JUMPDEST SWAP3 SWAP2 POP POP JUMP JUMPDEST PUSH0 PUSH2 0x2BD DUP3 PUSH2 0x185 JUMP JUMPDEST SWAP2 POP PUSH2 0x2C8 DUP4 PUSH2 0x185 JUMP JUMPDEST SWAP3 POP DUP3 DUP3 MUL PUSH2 0x2D6 DUP2 PUSH2 0x185 JUMP JUMPDEST SWAP2 POP DUP3 DUP3 DIV DUP5 EQ DUP4 ISZERO OR PUSH2 0x2ED JUMPI PUSH2 0x2EC PUSH2 0x1F9 JUMP JUMPDEST JUMPDEST POP SWAP3 SWAP2 POP POP JUMP JUMPDEST PUSH0 PUSH2 0x2FE DUP3 PUSH2 0x185 JUMP JUMPDEST SWAP2 POP PUSH32 0xFFFFFFFFFFFFFFFFFFFFFFFFFFFFFFFFFFFFFFFFFFFFFFFFFFFFFFFFFFFFFFFF DUP3 SUB PUSH2 0x330 JUMPI PUSH2 0x32F PUSH2 0x1F9 JUMP JUMPDEST JUMPDEST PUSH1 0x1 DUP3 ADD SWAP1 POP SWAP2 SWAP1 POP JUMP JUMPDEST PUSH32 0x4E487B7100000000000000000000000000000000000000000000000000000000 PUSH0 MSTORE PUSH1 0x12 PUSH1 0x4 MSTORE PUSH1 0x24 PUSH0 REVERT JUMPDEST PUSH0 PUSH2 0x372 DUP3 PUSH2 0x185 JUMP JUMPDEST SWAP2 POP PUSH2 0x37D DUP4 PUSH2 0x185 JUMP JUMPDEST SWAP3 POP DUP3 PUSH2 0x38D JUMPI PUSH2 0x38C PUSH2 0x33B JUMP JUMPDEST JUMPDEST DUP3 DUP3 MOD SWAP1 POP SWAP3 SWAP2 POP POP JUMP INVALID LOG2 PUSH5 0x6970667358 0x22 SLT KECCAK256 0xCE 0xD4 0x4E SHL 0xC1 0xE7 CREATE SWAP7 0x29 SWAP1 0x23 0x4B SWAP3 0xDA 0xBB SELFBALANCE LOG0 0xAC PUSH18 0xBA907501B1700842993357DD0464736F6C63 NUMBER STOP ADDMOD BYTE STOP CALLER "
				},
				"gasEstimates": {
					"creation": {
						"codeDepositCost": "194800",
						"executionCost": "236",
						"totalCost": "195036"
					},
					"external": {
						"arithmeticResults()": "infinite",
						"calculator()": "infinite",
						"findRemainder()": "310"
					}
				},
				"methodIdentifiers": {
					"arithmeticResults()": "e471e684",
					"calculator()": "ce3e39c0",
					"findRemainder()": "b4a44e3f"
				}
			},
			"storageLayout": {
				"storage": [],
				"types": null
			},
			"userdoc": {
				"kind": "user",
				"methods": {},
				"version": 1
			}
		}
	}
}