{
	"exercise1c.sol": {
		"DeFiExercise": {
			"abi": [
				{
					"inputs": [],
					"stateMutability": "nonpayable",
					"type": "constructor"
				},
				{
					"inputs": [],
					"name": "airDrop",
					"outputs": [
						{
							"internalType": "uint256",
							"name": "",
							"type": "uint256"
						}
					],
					"stateMutability": "view",
					"type": "function"
				},
				{
					"inputs": [],
					"name": "stakingWallet",
					"outputs": [
						{
							"internalType": "uint256",
							"name": "",
							"type": "uint256"
						}
					],
					"stateMutability": "view",
					"type": "function"
				}
			],
			"devdoc": {
				"kind": "dev",
				"methods": {},
				"version": 1
			},
			"evm": {
				"assembly": "    /* \"exercise1c.sol\":60:585  contract DeFiExercise {... */\n  mstore(0x40, 0x80)\n    /* \"exercise1c.sol\":117:119  10 */\n  0x0a\n    /* \"exercise1c.sol\":89:119  uint public stakingWallet = 10 */\n  0x00\n  sstore\n    /* \"exercise1c.sol\":162:178  constructor() {} */\n  callvalue\n  dup1\n  iszero\n  tag_1\n  jumpi\n  0x00\n  dup1\n  revert\ntag_1:\n  pop\n    /* \"exercise1c.sol\":60:585  contract DeFiExercise {... */\n  dataSize(sub_0)\n  dup1\n  dataOffset(sub_0)\n  0x00\n  codecopy\n  0x00\n  return\nstop\n\nsub_0: assembly {\n        /* \"exercise1c.sol\":60:585  contract DeFiExercise {... */\n      mstore(0x40, 0x80)\n      callvalue\n      dup1\n      iszero\n      tag_1\n      jumpi\n      0x00\n      dup1\n      revert\n    tag_1:\n      pop\n      jumpi(tag_2, lt(calldatasize, 0x04))\n      shr(0xe0, calldataload(0x00))\n      dup1\n      0x06ee6ad8\n      eq\n      tag_3\n      jumpi\n      dup1\n      0xca5d0880\n      eq\n      tag_4\n      jumpi\n    tag_2:\n      0x00\n      dup1\n      revert\n        /* \"exercise1c.sol\":89:119  uint public stakingWallet = 10 */\n    tag_3:\n      tag_5\n      tag_6\n      jump\t// in\n    tag_5:\n      mload(0x40)\n      tag_7\n      swap2\n      swap1\n      tag_8\n      jump\t// in\n    tag_7:\n      mload(0x40)\n      dup1\n      swap2\n      sub\n      swap1\n      return\n        /* \"exercise1c.sol\":186:582  function airDrop() public view returns (uint) {... */\n    tag_4:\n      tag_9\n      tag_10\n      jump\t// in\n    tag_9:\n      mload(0x40)\n      tag_11\n      swap2\n      swap1\n      tag_8\n      jump\t// in\n    tag_11:\n      mload(0x40)\n      dup1\n      swap2\n      sub\n      swap1\n      return\n        /* \"exercise1c.sol\":89:119  uint public stakingWallet = 10 */\n    tag_6:\n      sload(0x00)\n      dup2\n      jump\t// out\n        /* \"exercise1c.sol\":186:582  function airDrop() public view returns (uint) {... */\n    tag_10:\n        /* \"exercise1c.sol\":226:230  uint */\n      0x00\n        /* \"exercise1c.sol\":243:254  uint wallet */\n      dup1\n        /* \"exercise1c.sol\":257:270  stakingWallet */\n      sload(0x00)\n        /* \"exercise1c.sol\":243:270  uint wallet = stakingWallet */\n      swap1\n      pop\n        /* \"exercise1c.sol\":365:367  10 */\n      0x0a\n        /* \"exercise1c.sol\":355:361  wallet */\n      dup2\n        /* \"exercise1c.sol\":355:367  wallet == 10 */\n      sub\n        /* \"exercise1c.sol\":351:514  if (wallet == 10) {... */\n      tag_13\n      jumpi\n        /* \"exercise1c.sol\":394:396  10 */\n      0x0a\n        /* \"exercise1c.sol\":384:396  wallet += 10 */\n      dup2\n      tag_14\n      swap2\n      swap1\n      tag_15\n      jump\t// in\n    tag_14:\n      swap1\n      pop\n        /* \"exercise1c.sol\":351:514  if (wallet == 10) {... */\n      jump(tag_16)\n    tag_13:\n        /* \"exercise1c.sol\":475:476  1 */\n      0x01\n        /* \"exercise1c.sol\":465:476  wallet += 1 */\n      dup2\n      tag_17\n      swap2\n      swap1\n      tag_15\n      jump\t// in\n    tag_17:\n      swap1\n      pop\n        /* \"exercise1c.sol\":351:514  if (wallet == 10) {... */\n    tag_16:\n        /* \"exercise1c.sol\":533:539  wallet */\n      dup1\n        /* \"exercise1c.sol\":526:539  return wallet */\n      swap2\n      pop\n      pop\n        /* \"exercise1c.sol\":186:582  function airDrop() public view returns (uint) {... */\n      swap1\n      jump\t// out\n        /* \"#utility.yul\":7:84   */\n    tag_18:\n        /* \"#utility.yul\":44:51   */\n      0x00\n        /* \"#utility.yul\":73:78   */\n      dup2\n        /* \"#utility.yul\":62:78   */\n      swap1\n      pop\n        /* \"#utility.yul\":7:84   */\n      swap2\n      swap1\n      pop\n      jump\t// out\n        /* \"#utility.yul\":90:208   */\n    tag_19:\n        /* \"#utility.yul\":177:201   */\n      tag_24\n        /* \"#utility.yul\":195:200   */\n      dup2\n        /* \"#utility.yul\":177:201   */\n      tag_18\n      jump\t// in\n    tag_24:\n        /* \"#utility.yul\":172:175   */\n      dup3\n        /* \"#utility.yul\":165:202   */\n      mstore\n        /* \"#utility.yul\":90:208   */\n      pop\n      pop\n      jump\t// out\n        /* \"#utility.yul\":214:436   */\n    tag_8:\n        /* \"#utility.yul\":307:311   */\n      0x00\n        /* \"#utility.yul\":345:347   */\n      0x20\n        /* \"#utility.yul\":334:343   */\n      dup3\n        /* \"#utility.yul\":330:348   */\n      add\n        /* \"#utility.yul\":322:348   */\n      swap1\n      pop\n        /* \"#utility.yul\":358:429   */\n      tag_26\n        /* \"#utility.yul\":426:427   */\n      0x00\n        /* \"#utility.yul\":415:424   */\n      dup4\n        /* \"#utility.yul\":411:428   */\n      add\n        /* \"#utility.yul\":402:408   */\n      dup5\n        /* \"#utility.yul\":358:429   */\n      tag_19\n      jump\t// in\n    tag_26:\n        /* \"#utility.yul\":214:436   */\n      swap3\n      swap2\n      pop\n      pop\n      jump\t// out\n        /* \"#utility.yul\":442:622   */\n    tag_20:\n        /* \"#utility.yul\":490:567   */\n      0x4e487b7100000000000000000000000000000000000000000000000000000000\n        /* \"#utility.yul\":487:488   */\n      0x00\n        /* \"#utility.yul\":480:568   */\n      mstore\n        /* \"#utility.yul\":587:591   */\n      0x11\n        /* \"#utility.yul\":584:585   */\n      0x04\n        /* \"#utility.yul\":577:592   */\n      mstore\n        /* \"#utility.yul\":611:615   */\n      0x24\n        /* \"#utility.yul\":608:609   */\n      0x00\n        /* \"#utility.yul\":601:616   */\n      revert\n        /* \"#utility.yul\":628:819   */\n    tag_15:\n        /* \"#utility.yul\":668:671   */\n      0x00\n        /* \"#utility.yul\":687:707   */\n      tag_29\n        /* \"#utility.yul\":705:706   */\n      dup3\n        /* \"#utility.yul\":687:707   */\n      tag_18\n      jump\t// in\n    tag_29:\n        /* \"#utility.yul\":682:707   */\n      swap2\n      pop\n        /* \"#utility.yul\":721:741   */\n      tag_30\n        /* \"#utility.yul\":739:740   */\n      dup4\n        /* \"#utility.yul\":721:741   */\n      tag_18\n      jump\t// in\n    tag_30:\n        /* \"#utility.yul\":716:741   */\n      swap3\n      pop\n        /* \"#utility.yul\":764:765   */\n      dup3\n        /* \"#utility.yul\":761:762   */\n      dup3\n        /* \"#utility.yul\":757:766   */\n      add\n        /* \"#utility.yul\":750:766   */\n      swap1\n      pop\n        /* \"#utility.yul\":785:788   */\n      dup1\n        /* \"#utility.yul\":782:783   */\n      dup3\n        /* \"#utility.yul\":779:789   */\n      gt\n        /* \"#utility.yul\":776:812   */\n      iszero\n      tag_31\n      jumpi\n        /* \"#utility.yul\":792:810   */\n      tag_32\n      tag_20\n      jump\t// in\n    tag_32:\n        /* \"#utility.yul\":776:812   */\n    tag_31:\n        /* \"#utility.yul\":628:819   */\n      swap3\n      swap2\n      pop\n      pop\n      jump\t// out\n\n    auxdata: 0xa26469706673582212200013a19173a90ae2fdad8b2f6993f24ae0d9d7d9408ed51fe1207e9543ed525364736f6c634300081a0033\n}\n",
				"bytecode": {
					"linkReferences": {},
					"object": "6080604052600a5f553480156012575f80fd5b50610179806100205f395ff3fe608060405234801561000f575f80fd5b5060043610610034575f3560e01c806306ee6ad814610038578063ca5d088014610056575b5f80fd5b610040610074565b60405161004d91906100ca565b60405180910390f35b61005e610079565b60405161006b91906100ca565b60405180910390f35b5f5481565b5f805f549050600a810361009b57600a816100949190610110565b90506100ab565b6001816100a89190610110565b90505b8091505090565b5f819050919050565b6100c4816100b2565b82525050565b5f6020820190506100dd5f8301846100bb565b92915050565b7f4e487b71000000000000000000000000000000000000000000000000000000005f52601160045260245ffd5b5f61011a826100b2565b9150610125836100b2565b925082820190508082111561013d5761013c6100e3565b5b9291505056fea26469706673582212200013a19173a90ae2fdad8b2f6993f24ae0d9d7d9408ed51fe1207e9543ed525364736f6c634300081a0033",
					"opcodes": "PUSH1 0x80 PUSH1 0x40 MSTORE PUSH1 0xA PUSH0 SSTORE CALLVALUE DUP1 ISZERO PUSH1 0x12 JUMPI PUSH0 DUP1 REVERT JUMPDEST POP PUSH2 0x179 DUP1 PUSH2 0x20 PUSH0 CODECOPY PUSH0 RETURN INVALID PUSH1 0x80 PUSH1 0x40 MSTORE CALLVALUE DUP1 ISZERO PUSH2 0xF JUMPI PUSH0 DUP1 REVERT JUMPDEST POP PUSH1 0x4 CALLDATASIZE LT PUSH2 0x34 JUMPI PUSH0 CALLDATALOAD PUSH1 0xE0 SHR DUP1 PUSH4 0x6EE6AD8 EQ PUSH2 0x38 JUMPI DUP1 PUSH4 0xCA5D0880 EQ PUSH2 0x56 JUMPI JUMPDEST PUSH0 DUP1 REVERT JUMPDEST PUSH2 0x40 PUSH2 0x74 JUMP JUMPDEST PUSH1 0x40 MLOAD PUSH2 0x4D SWAP2 SWAP1 PUSH2 0xCA JUMP JUMPDEST PUSH1 0x40 MLOAD DUP1 SWAP2 SUB SWAP1 RETURN JUMPDEST PUSH2 0x5E PUSH2 0x79 JUMP JUMPDEST PUSH1 0x40 MLOAD PUSH2 0x6B SWAP2 SWAP1 PUSH2 0xCA JUMP JUMPDEST PUSH1 0x40 MLOAD DUP1 SWAP2 SUB SWAP1 RETURN JUMPDEST PUSH0 SLOAD DUP2 JUMP JUMPDEST PUSH0 DUP1 PUSH0 SLOAD SWAP1 POP PUSH1 0xA DUP2 SUB PUSH2 0x9B JUMPI PUSH1 0xA DUP2 PUSH2 0x94 SWAP2 SWAP1 PUSH2 0x110 JUMP JUMPDEST SWAP1 POP PUSH2 0xAB JUMP JUMPDEST PUSH1 0x1 DUP2 PUSH2 0xA8 SWAP2 SWAP1 PUSH2 0x110 JUMP JUMPDEST SWAP1 POP JUMPDEST DUP1 SWAP2 POP POP SWAP1 JUMP JUMPDEST PUSH0 DUP2 SWAP1 POP SWAP2 SWAP1 POP JUMP JUMPDEST PUSH2 0xC4 DUP2 PUSH2 0xB2 JUMP JUMPDEST DUP3 MSTORE POP POP JUMP JUMPDEST PUSH0 PUSH1 0x20 DUP3 ADD SWAP1 POP PUSH2 0xDD PUSH0 DUP4 ADD DUP5 PUSH2 0xBB JUMP JUMPDEST SWAP3 SWAP2 POP POP JUMP JUMPDEST PUSH32 0x4E487B7100000000000000000000000000000000000000000000000000000000 PUSH0 MSTORE PUSH1 0x11 PUSH1 0x4 MSTORE PUSH1 0x24 PUSH0 REVERT JUMPDEST PUSH0 PUSH2 0x11A DUP3 PUSH2 0xB2 JUMP JUMPDEST SWAP2 POP PUSH2 0x125 DUP4 PUSH2 0xB2 JUMP JUMPDEST SWAP3 POP DUP3 DUP3 ADD SWAP1 POP DUP1 DUP3 GT ISZERO PUSH2 0x13D JUMPI PUSH2 0x13C PUSH2 0xE3 JUMP JUMPDEST JUMPDEST SWAP3 SWAP2 POP POP JUMP INVALID LOG2 PUSH5 0x6970667358 0x22 SLT KECCAK256 STOP SGT LOG1 SWAP2 PUSH20 0xA90AE2FDAD8B2F6993F24AE0D9D7D9408ED51FE1 KECCAK256 PUSH31 0x9543ED525364736F6C634300081A0033000000000000000000000000000000 "
				},
				"gasEstimates": {
					"creation": {
						"codeDepositCost": "75400",
						"executionCost": "22226",
						"totalCost": "97626"
					},
					"external": {
						"airDrop()": "infinite",
						"stakingWallet()": "2402"
					}
				},
				"methodIdentifiers": {
					"airDrop()": "ca5d0880",
					"stakingWallet()": "06ee6ad8"
				}
			},
			"storageLayout": {
				"storage": [
					{
						"astId": 4,
						"contract": "exercise1c.sol:DeFiExercise",
						"label": "stakingWallet",
						"offset": 0,
						"slot": "0",
						"type": "t_uint256"
					}
				],
				"types": {
					"t_uint256": {
						"encoding": "inplace",
						"label": "uint256",
						"numberOfBytes": "32"
					}
				}
			},
			"userdoc": {
				"kind": "user",
				"methods": {},
				"version": 1
			}
		}
	}
}